{
  "abi": [
    {
      "inputs": [
        {
          "internalType": "address",
          "name": "_stablecoin",
          "type": "address"
        },
        {
          "internalType": "address",
          "name": "_assetToken",
          "type": "address"
        },
        {
          "internalType": "address",
          "name": "_priceFeed",
          "type": "address"
        }
      ],
      "stateMutability": "nonpayable",
      "type": "constructor"
    },
    {
      "inputs": [],
      "name": "assetToken",
      "outputs": [
        {
          "internalType": "contract ERC20",
          "name": "",
          "type": "address"
        }
      ],
      "stateMutability": "view",
      "type": "function"
    },
    {
      "inputs": [
        {
          "internalType": "uint256",
          "name": "_amount",
          "type": "uint256"
        }
      ],
      "name": "getLatestPrice",
      "outputs": [
        {
          "internalType": "uint256",
          "name": "",
          "type": "uint256"
        }
      ],
      "stateMutability": "view",
      "type": "function"
    },
    {
      "inputs": [],
      "name": "priceFeed",
      "outputs": [
        {
          "internalType": "contract AggregatorV3Interface",
          "name": "",
          "type": "address"
        }
      ],
      "stateMutability": "view",
      "type": "function"
    },
    {
      "inputs": [],
      "name": "stablecoin",
      "outputs": [
        {
          "internalType": "contract ERC20",
          "name": "",
          "type": "address"
        }
      ],
      "stateMutability": "view",
      "type": "function"
    },
    {
      "inputs": [
        {
          "internalType": "uint256",
          "name": "_amount",
          "type": "uint256"
        }
      ],
      "name": "swap",
      "outputs": [],
      "stateMutability": "nonpayable",
      "type": "function"
    }
  ],
  "bytecode": {
    "object": "0x608060405234801561001057600080fd5b5060405161068d38038061068d83398101604081905261002f9161008d565b600080546001600160a01b039485166001600160a01b0319918216179091556001805493851693821693909317909255600280549190931691161790556100d0565b80516001600160a01b038116811461008857600080fd5b919050565b6000806000606084860312156100a257600080fd5b6100ab84610071565b92506100b960208501610071565b91506100c760408501610071565b90509250925092565b6105ae806100df6000396000f3fe608060405234801561001057600080fd5b50600436106100575760003560e01c80631083f7611461005c578063741bef1a1461008c57806394b918de1461009f578063b94fe917146100b4578063e9cbd822146100d5575b600080fd5b60015461006f906001600160a01b031681565b6040516001600160a01b0390911681526020015b60405180910390f35b60025461006f906001600160a01b031681565b6100b26100ad366004610461565b6100e8565b005b6100c76100c2366004610461565b6103b1565b604051908152602001610083565b60005461006f906001600160a01b031681565b600054604051636eb1769f60e11b815233600482015230602482015282916001600160a01b03169063dd62ed3e90604401602060405180830381865afa158015610136573d6000803e3d6000fd5b505050506040513d601f19601f8201168201806040525081019061015a919061047a565b10156101ad5760405162461bcd60e51b815260206004820152601c60248201527f737461626c65636f696e20416c6c6f77616e636520746f6f206c6f770000000060448201526064015b60405180910390fd5b60006101b8826103b1565b905060006101ce82670de0b6b3a7640000610493565b6001546040516370a0823160e01b815230600482015291925082916001600160a01b03909116906370a0823190602401602060405180830381865afa15801561021b573d6000803e3d6000fd5b505050506040513d601f19601f8201168201806040525081019061023f919061047a565b10156102985760405162461bcd60e51b815260206004820152602260248201527f4e6f7420656e6f7567682062616c616e636520696e2074686520636f6e74726160448201526118dd60f21b60648201526084016101a4565b6000546001600160a01b03166323b872dd33306102bd87670de0b6b3a7640000610493565b6040516001600160e01b031960e086901b1681526001600160a01b03938416600482015292909116602483015260448201526064016020604051808303816000875af1158015610311573d6000803e3d6000fd5b505050506040513d601f19601f8201168201806040525081019061033591906104be565b5060015460405163a9059cbb60e01b8152336004820152602481018390526001600160a01b039091169063a9059cbb906044016020604051808303816000875af1158015610387573d6000803e3d6000fd5b505050506040513d601f19601f820116820180604052508101906103ab91906104be565b50505050565b600080600080600080600260009054906101000a90046001600160a01b03166001600160a01b031663feaf968c6040518163ffffffff1660e01b815260040160a060405180830381865afa15801561040d573d6000803e3d6000fd5b505050506040513d601f19601f820116820180604052508101906104319190610506565b945094509450945094506305f5e100848861044c9190610493565b6104569190610556565b979650505050505050565b60006020828403121561047357600080fd5b5035919050565b60006020828403121561048c57600080fd5b5051919050565b80820281158282048414176104b857634e487b7160e01b600052601160045260246000fd5b92915050565b6000602082840312156104d057600080fd5b815180151581146104e057600080fd5b9392505050565b805169ffffffffffffffffffff8116811461050157600080fd5b919050565b600080600080600060a0868803121561051e57600080fd5b610527866104e7565b945060208601519350604086015192506060860151915061054a608087016104e7565b90509295509295909350565b60008261057357634e487b7160e01b600052601260045260246000fd5b50049056fea264697066735822122025153aaaf00d646293aadd8e70c3466ab9371d76ec267b9a2a36eeadb081deeb64736f6c63430008150033",
    "linkReferences": {}
  },
  "methodIdentifiers": {
    "assetToken()": "1083f761",
    "getLatestPrice(uint256)": "b94fe917",
    "priceFeed()": "741bef1a",
    "stablecoin()": "e9cbd822",
    "swap(uint256)": "94b918de"
  },
  "id": 22
}