{
  "abi": [
    {
      "inputs": [
        {
          "internalType": "uint256",
          "name": "initialSupply",
          "type": "uint256"
        }
      ],
      "stateMutability": "nonpayable",
      "type": "constructor"
    },
    {
      "inputs": [
        {
          "internalType": "address",
          "name": "spender",
          "type": "address"
        },
        {
          "internalType": "uint256",
          "name": "allowance",
          "type": "uint256"
        },
        {
          "internalType": "uint256",
          "name": "needed",
          "type": "uint256"
        }
      ],
      "name": "ERC20InsufficientAllowance",
      "type": "error"
    },
    {
      "inputs": [
        {
          "internalType": "address",
          "name": "sender",
          "type": "address"
        },
        {
          "internalType": "uint256",
          "name": "balance",
          "type": "uint256"
        },
        {
          "internalType": "uint256",
          "name": "needed",
          "type": "uint256"
        }
      ],
      "name": "ERC20InsufficientBalance",
      "type": "error"
    },
    {
      "inputs": [
        {
          "internalType": "address",
          "name": "approver",
          "type": "address"
        }
      ],
      "name": "ERC20InvalidApprover",
      "type": "error"
    },
    {
      "inputs": [
        {
          "internalType": "address",
          "name": "receiver",
          "type": "address"
        }
      ],
      "name": "ERC20InvalidReceiver",
      "type": "error"
    },
    {
      "inputs": [
        {
          "internalType": "address",
          "name": "sender",
          "type": "address"
        }
      ],
      "name": "ERC20InvalidSender",
      "type": "error"
    },
    {
      "inputs": [
        {
          "internalType": "address",
          "name": "spender",
          "type": "address"
        }
      ],
      "name": "ERC20InvalidSpender",
      "type": "error"
    },
    {
      "anonymous": false,
      "inputs": [
        {
          "indexed": true,
          "internalType": "address",
          "name": "owner",
          "type": "address"
        },
        {
          "indexed": true,
          "internalType": "address",
          "name": "spender",
          "type": "address"
        },
        {
          "indexed": false,
          "internalType": "uint256",
          "name": "value",
          "type": "uint256"
        }
      ],
      "name": "Approval",
      "type": "event"
    },
    {
      "anonymous": false,
      "inputs": [
        {
          "indexed": true,
          "internalType": "address",
          "name": "from",
          "type": "address"
        },
        {
          "indexed": true,
          "internalType": "address",
          "name": "to",
          "type": "address"
        },
        {
          "indexed": false,
          "internalType": "uint256",
          "name": "value",
          "type": "uint256"
        }
      ],
      "name": "Transfer",
      "type": "event"
    },
    {
      "inputs": [
        {
          "internalType": "address",
          "name": "owner",
          "type": "address"
        },
        {
          "internalType": "address",
          "name": "spender",
          "type": "address"
        }
      ],
      "name": "allowance",
      "outputs": [
        {
          "internalType": "uint256",
          "name": "",
          "type": "uint256"
        }
      ],
      "stateMutability": "view",
      "type": "function"
    },
    {
      "inputs": [
        {
          "internalType": "address",
          "name": "spender",
          "type": "address"
        },
        {
          "internalType": "uint256",
          "name": "value",
          "type": "uint256"
        }
      ],
      "name": "approve",
      "outputs": [
        {
          "internalType": "bool",
          "name": "",
          "type": "bool"
        }
      ],
      "stateMutability": "nonpayable",
      "type": "function"
    },
    {
      "inputs": [
        {
          "internalType": "address",
          "name": "account",
          "type": "address"
        }
      ],
      "name": "balanceOf",
      "outputs": [
        {
          "internalType": "uint256",
          "name": "",
          "type": "uint256"
        }
      ],
      "stateMutability": "view",
      "type": "function"
    },
    {
      "inputs": [],
      "name": "decimals",
      "outputs": [
        {
          "internalType": "uint8",
          "name": "",
          "type": "uint8"
        }
      ],
      "stateMutability": "view",
      "type": "function"
    },
    {
      "inputs": [],
      "name": "name",
      "outputs": [
        {
          "internalType": "string",
          "name": "",
          "type": "string"
        }
      ],
      "stateMutability": "view",
      "type": "function"
    },
    {
      "inputs": [
        {
          "internalType": "uint256",
          "name": "_amount",
          "type": "uint256"
        }
      ],
      "name": "receiveToken",
      "outputs": [],
      "stateMutability": "nonpayable",
      "type": "function"
    },
    {
      "inputs": [],
      "name": "symbol",
      "outputs": [
        {
          "internalType": "string",
          "name": "",
          "type": "string"
        }
      ],
      "stateMutability": "view",
      "type": "function"
    },
    {
      "inputs": [],
      "name": "totalSupply",
      "outputs": [
        {
          "internalType": "uint256",
          "name": "",
          "type": "uint256"
        }
      ],
      "stateMutability": "view",
      "type": "function"
    },
    {
      "inputs": [
        {
          "internalType": "address",
          "name": "to",
          "type": "address"
        },
        {
          "internalType": "uint256",
          "name": "value",
          "type": "uint256"
        }
      ],
      "name": "transfer",
      "outputs": [
        {
          "internalType": "bool",
          "name": "",
          "type": "bool"
        }
      ],
      "stateMutability": "nonpayable",
      "type": "function"
    },
    {
      "inputs": [
        {
          "internalType": "address",
          "name": "from",
          "type": "address"
        },
        {
          "internalType": "address",
          "name": "to",
          "type": "address"
        },
        {
          "internalType": "uint256",
          "name": "value",
          "type": "uint256"
        }
      ],
      "name": "transferFrom",
      "outputs": [
        {
          "internalType": "bool",
          "name": "",
          "type": "bool"
        }
      ],
      "stateMutability": "nonpayable",
      "type": "function"
    }
  ],
  "bytecode": {
    "object": "0x60806040523480156200001157600080fd5b5060405162000bf538038062000bf583398101604081905262000034916200023f565b6040518060400160405280600a81526020016929ba30b13632b1b7b4b760b11b8152506040518060400160405280600481526020016314d5109360e21b8152508160039081620000859190620002fe565b506004620000948282620002fe565b505050620000b133600283620000ab9190620003ca565b620000ca565b620000c330620000ab600284620003ca565b5062000415565b6001600160a01b038216620000fa5760405163ec442f0560e01b8152600060048201526024015b60405180910390fd5b62000108600083836200010c565b5050565b6001600160a01b0383166200013b5780600260008282546200012f9190620003ed565b90915550620001af9050565b6001600160a01b03831660009081526020819052604090205481811015620001905760405163391434e360e21b81526001600160a01b03851660048201526024810182905260448101839052606401620000f1565b6001600160a01b03841660009081526020819052604090209082900390555b6001600160a01b038216620001cd57600280548290039055620001ec565b6001600160a01b03821660009081526020819052604090208054820190555b816001600160a01b0316836001600160a01b03167fddf252ad1be2c89b69c2b068fc378daa952ba7f163c4a11628f55a4df523b3ef836040516200023291815260200190565b60405180910390a3505050565b6000602082840312156200025257600080fd5b5051919050565b634e487b7160e01b600052604160045260246000fd5b600181811c908216806200028457607f821691505b602082108103620002a557634e487b7160e01b600052602260045260246000fd5b50919050565b601f821115620002f957600081815260208120601f850160051c81016020861015620002d45750805b601f850160051c820191505b81811015620002f557828155600101620002e0565b5050505b505050565b81516001600160401b038111156200031a576200031a62000259565b62000332816200032b84546200026f565b84620002ab565b602080601f8311600181146200036a5760008415620003515750858301515b600019600386901b1c1916600185901b178555620002f5565b600085815260208120601f198616915b828110156200039b578886015182559484019460019091019084016200037a565b5085821015620003ba5787850151600019600388901b60f8161c191681555b5050505050600190811b01905550565b600082620003e857634e487b7160e01b600052601260045260246000fd5b500490565b808201808211156200040f57634e487b7160e01b600052601160045260246000fd5b92915050565b6107d080620004256000396000f3fe608060405234801561001057600080fd5b506004361061009e5760003560e01c806337df00c91161006657806337df00c91461011857806370a082311461012d57806395d89b4114610156578063a9059cbb1461015e578063dd62ed3e1461017157600080fd5b806306fdde03146100a3578063095ea7b3146100c157806318160ddd146100e457806323b872dd146100f6578063313ce56714610109575b600080fd5b6100ab6101aa565b6040516100b891906105e2565b60405180910390f35b6100d46100cf36600461064c565b61023c565b60405190151581526020016100b8565b6002545b6040519081526020016100b8565b6100d4610104366004610676565b610256565b604051601281526020016100b8565b61012b6101263660046106b2565b61027a565b005b6100e861013b3660046106cb565b6001600160a01b031660009081526020819052604090205490565b6100ab610298565b6100d461016c36600461064c565b6102a7565b6100e861017f3660046106ed565b6001600160a01b03918216600090815260016020908152604080832093909416825291909152205490565b6060600380546101b990610720565b80601f01602080910402602001604051908101604052809291908181526020018280546101e590610720565b80156102325780601f1061020757610100808354040283529160200191610232565b820191906000526020600020905b81548152906001019060200180831161021557829003601f168201915b5050505050905090565b60003361024a8185856102b5565b60019150505b92915050565b6000336102648582856102c7565b61026f85858561034a565b506001949350505050565b6102953361029083670de0b6b3a7640000610770565b6103a9565b50565b6060600480546101b990610720565b60003361024a81858561034a565b6102c283838360016103e3565b505050565b6001600160a01b038381166000908152600160209081526040808320938616835292905220546000198114610344578181101561033557604051637dc7a0d960e11b81526001600160a01b038416600482015260248101829052604481018390526064015b60405180910390fd5b610344848484840360006103e3565b50505050565b6001600160a01b03831661037457604051634b637e8f60e11b81526000600482015260240161032c565b6001600160a01b03821661039e5760405163ec442f0560e01b81526000600482015260240161032c565b6102c28383836104b8565b6001600160a01b0382166103d35760405163ec442f0560e01b81526000600482015260240161032c565b6103df600083836104b8565b5050565b6001600160a01b03841661040d5760405163e602df0560e01b81526000600482015260240161032c565b6001600160a01b03831661043757604051634a1406b160e11b81526000600482015260240161032c565b6001600160a01b038085166000908152600160209081526040808320938716835292905220829055801561034457826001600160a01b0316846001600160a01b03167f8c5be1e5ebec7d5bd14f71427d1e84f3dd0314c0f7b2291e5b200ac8c7c3b925846040516104aa91815260200190565b60405180910390a350505050565b6001600160a01b0383166104e35780600260008282546104d89190610787565b909155506105559050565b6001600160a01b038316600090815260208190526040902054818110156105365760405163391434e360e21b81526001600160a01b0385166004820152602481018290526044810183905260640161032c565b6001600160a01b03841660009081526020819052604090209082900390555b6001600160a01b03821661057157600280548290039055610590565b6001600160a01b03821660009081526020819052604090208054820190555b816001600160a01b0316836001600160a01b03167fddf252ad1be2c89b69c2b068fc378daa952ba7f163c4a11628f55a4df523b3ef836040516105d591815260200190565b60405180910390a3505050565b600060208083528351808285015260005b8181101561060f578581018301518582016040015282016105f3565b506000604082860101526040601f19601f8301168501019250505092915050565b80356001600160a01b038116811461064757600080fd5b919050565b6000806040838503121561065f57600080fd5b61066883610630565b946020939093013593505050565b60008060006060848603121561068b57600080fd5b61069484610630565b92506106a260208501610630565b9150604084013590509250925092565b6000602082840312156106c457600080fd5b5035919050565b6000602082840312156106dd57600080fd5b6106e682610630565b9392505050565b6000806040838503121561070057600080fd5b61070983610630565b915061071760208401610630565b90509250929050565b600181811c9082168061073457607f821691505b60208210810361075457634e487b7160e01b600052602260045260246000fd5b50919050565b634e487b7160e01b600052601160045260246000fd5b80820281158282048414176102505761025061075a565b808201808211156102505761025061075a56fea264697066735822122028a607bb56fa1d4cf7a3843cd5fbe9c73bf47a440f0732f7eeb02b9a3f1c976364736f6c63430008150033",
    "linkReferences": {}
  },
  "methodIdentifiers": {
    "allowance(address,address)": "dd62ed3e",
    "approve(address,uint256)": "095ea7b3",
    "balanceOf(address)": "70a08231",
    "decimals()": "313ce567",
    "name()": "06fdde03",
    "receiveToken(uint256)": "37df00c9",
    "symbol()": "95d89b41",
    "totalSupply()": "18160ddd",
    "transfer(address,uint256)": "a9059cbb",
    "transferFrom(address,address,uint256)": "23b872dd"
  },
  "id": 23
}